:020000040800F2
:1000000000100020C100000835010008350100087B
:1000100035010008350100083501000835010008E8
:1000200035010008350100083501000835010008D8
:1000300035010008350100083501000835010008C8
:1000400035010008350100083501000835010008B8
:1000500035010008350100083501000835010008A8
:100060003501000835010008350100083501000898
:100070003501000835010008350100083501000888
:100080003501000835010008350100083501000878
:100090003501000835010008350100083501000868
:1000A0003501000835010008350100083501000858
:1000B0003501000835010008350100083501000848
:1000C00080B584B000AF164BFB60164BBB60164A80
:1000D000144BD31A7B6007E0BB685A1CBA60FA68FD
:1000E000511CF96012781A707B685A1E7A60002BD6
:1000F000F2D10E4BBB600E4A0C4BD31A7B6004E06E
:10010000BB685A1CBA6000221A707B685A1E7A605B
:10011000002BF5D100F010F9BD4604B080BDC046FB
:100120006003000800000020000000200000002004
:100130000400002080B500AFFEE7C04680B582B065
:1001400000AF7860C0467B685A1E7A60002BFAD1F7
:10015000BD4602B080BDC04680B500AF204B204AEE
:10016000126820490A401A60C0461D4B1A68802355
:100170009B041340F9D11C4B1B4A126801210A430E
:100180001A60194B184A126806218A431A60164BE6
:10019000154A126810210A431A60144B134A126858
:1001A00013490A401A60114B104A1268A0218903B2
:1001B0000A431A600D4B0D4A12688021C9010A4397
:1001C0001A60074B064A1268802149040A431A60E4
:1001D000064B064A126802210A431A60BD4680BDDA
:1001E00000100240FFFFFFFE00200240041002400A
:1001F000FFFFC3FF80B500AF304B304A126880214B
:1002000089020A431A602D4B2C4A12688021C902C8
:100210000A431A609023DB059022D205126801215F
:100220000A431A609023DB059022D205126802214E
:100230008A431A60224B224A126840210A431A60FC
:100240001F4B1F4A126880218A431A601C4B1C4AAC
:100250001268802149000A431A60194B184A126833
:1002600018490A401A609023DB059022D2051268D3
:1002700010210A431A609023DB059022D2051268F0
:1002800020218A431A600E4B0D4A126801210A434D
:100290001A600B4B0A4A126802218A431A60084B03
:1002A000074A126804210A431A60054B044A12687F
:1002B00008218A431A60BD4680BDC0461410024022
:1002C00000040048FFFDFFFF80B500AF084B1B682E
:1002D0000822134008D0C046054B1B680822134073
:1002E000FAD100F007F800E00023181CBD4680BDDD
:1002F0001004004880B500AF0D4B1B68002B09D1DE
:100300000B4B01221A600B4B0A4A126801210A4367
:100310001A6008E0064B00221A60064B054A126874
:1003200001218A431A600023181CBD4680BDC046C7
:10033000000000201404004880B500AF064B1B6885
:10034000012B01D1FFF708FFFFF754FF034B0022F9
:100350001A60FFF7B9FFFCE7002002400000002010
:0400000508000000EF
:00000001FF
